{
  "contractName": "User",
  "abi": [
    {
      "inputs": [],
      "name": "serialNumber",
      "outputs": [
        {
          "internalType": "uint256",
          "name": "",
          "type": "uint256"
        }
      ],
      "stateMutability": "view",
      "type": "function"
    },
    {
      "inputs": [
        {
          "internalType": "uint256",
          "name": "",
          "type": "uint256"
        }
      ],
      "name": "users",
      "outputs": [
        {
          "internalType": "string",
          "name": "name",
          "type": "string"
        },
        {
          "internalType": "uint256",
          "name": "age",
          "type": "uint256"
        }
      ],
      "stateMutability": "view",
      "type": "function"
    },
    {
      "inputs": [
        {
          "internalType": "string",
          "name": "_name",
          "type": "string"
        },
        {
          "internalType": "uint256",
          "name": "_age",
          "type": "uint256"
        }
      ],
      "name": "addUser",
      "outputs": [],
      "stateMutability": "nonpayable",
      "type": "function"
    },
    {
      "inputs": [
        {
          "internalType": "uint256",
          "name": "_serialNumber",
          "type": "uint256"
        }
      ],
      "name": "fetchUser",
      "outputs": [
        {
          "internalType": "string",
          "name": "",
          "type": "string"
        },
        {
          "internalType": "uint256",
          "name": "",
          "type": "uint256"
        }
      ],
      "stateMutability": "view",
      "type": "function"
    }
  ],
  "bytecode": "0x608060405234801561001057600080fd5b50610948806100206000396000f3fe608060405234801561001057600080fd5b506004361061004c5760003560e01c80631c5220c2146100515780632a0daeea1461006d578063365b98b21461008b578063dfbf9900146100bc575b600080fd5b61006b6004803603810190610066919061045b565b6100ed565b005b610075610155565b60405161008291906104c6565b60405180910390f35b6100a560048036038101906100a091906104e1565b61015b565b6040516100b392919061058d565b60405180910390f35b6100d660048036038101906100d191906104e1565b610207565b6040516100e492919061058d565b60405180910390f35b6040518060400160405280838152602001828152506000806001548152602001908152602001600020600082015181600001908161012b91906107c9565b50602082015181600101559050506001600081548092919061014c906108ca565b91905055505050565b60015481565b600060205280600052604060002060009150905080600001805461017e906105ec565b80601f01602080910402602001604051908101604052809291908181526020018280546101aa906105ec565b80156101f75780601f106101cc576101008083540402835291602001916101f7565b820191906000526020600020905b8154815290600101906020018083116101da57829003601f168201915b5050505050908060010154905082565b6060600080600084815260200190815260200160002060000160008085815260200190815260200160002060010154818054610242906105ec565b80601f016020809104026020016040519081016040528092919081815260200182805461026e906105ec565b80156102bb5780601f10610290576101008083540402835291602001916102bb565b820191906000526020600020905b81548152906001019060200180831161029e57829003601f168201915b5050505050915091509150915091565b6000604051905090565b600080fd5b600080fd5b600080fd5b600080fd5b6000601f19601f8301169050919050565b7f4e487b7100000000000000000000000000000000000000000000000000000000600052604160045260246000fd5b610332826102e9565b810181811067ffffffffffffffff82111715610351576103506102fa565b5b80604052505050565b60006103646102cb565b90506103708282610329565b919050565b600067ffffffffffffffff8211156103905761038f6102fa565b5b610399826102e9565b9050602081019050919050565b82818337600083830152505050565b60006103c86103c384610375565b61035a565b9050828152602081018484840111156103e4576103e36102e4565b5b6103ef8482856103a6565b509392505050565b600082601f83011261040c5761040b6102df565b5b813561041c8482602086016103b5565b91505092915050565b6000819050919050565b61043881610425565b811461044357600080fd5b50565b6000813590506104558161042f565b92915050565b60008060408385031215610472576104716102d5565b5b600083013567ffffffffffffffff8111156104905761048f6102da565b5b61049c858286016103f7565b92505060206104ad85828601610446565b9150509250929050565b6104c081610425565b82525050565b60006020820190506104db60008301846104b7565b92915050565b6000602082840312156104f7576104f66102d5565b5b600061050584828501610446565b91505092915050565b600081519050919050565b600082825260208201905092915050565b60005b8381101561054857808201518184015260208101905061052d565b60008484015250505050565b600061055f8261050e565b6105698185610519565b935061057981856020860161052a565b610582816102e9565b840191505092915050565b600060408201905081810360008301526105a78185610554565b90506105b660208301846104b7565b9392505050565b7f4e487b7100000000000000000000000000000000000000000000000000000000600052602260045260246000fd5b6000600282049050600182168061060457607f821691505b602082108103610617576106166105bd565b5b50919050565b60008190508160005260206000209050919050565b60006020601f8301049050919050565b600082821b905092915050565b60006008830261067f7fffffffffffffffffffffffffffffffffffffffffffffffffffffffffffffffff82610642565b6106898683610642565b95508019841693508086168417925050509392505050565b6000819050919050565b60006106c66106c16106bc84610425565b6106a1565b610425565b9050919050565b6000819050919050565b6106e0836106ab565b6106f46106ec826106cd565b84845461064f565b825550505050565b600090565b6107096106fc565b6107148184846106d7565b505050565b5b818110156107385761072d600082610701565b60018101905061071a565b5050565b601f82111561077d5761074e8161061d565b61075784610632565b81016020851015610766578190505b61077a61077285610632565b830182610719565b50505b505050565b600082821c905092915050565b60006107a060001984600802610782565b1980831691505092915050565b60006107b9838361078f565b9150826002028217905092915050565b6107d28261050e565b67ffffffffffffffff8111156107eb576107ea6102fa565b5b6107f582546105ec565b61080082828561073c565b600060209050601f8311600181146108335760008415610821578287015190505b61082b85826107ad565b865550610893565b601f1984166108418661061d565b60005b8281101561086957848901518255600182019150602085019450602081019050610844565b868310156108865784890151610882601f89168261078f565b8355505b6001600288020188555050505b505050505050565b7f4e487b7100000000000000000000000000000000000000000000000000000000600052601160045260246000fd5b60006108d582610425565b91507fffffffffffffffffffffffffffffffffffffffffffffffffffffffffffffffff82036109075761090661089b565b5b60018201905091905056fea2646970667358221220bbb67d6523062336eb7528287a39950d54f6cd74a0b08237782a45945fffa6d864736f6c63430008100033",
  "immutableReferences": {},
  "source": "// SPDX-License-Identifier: UNLICENSED\r\npragma solidity ^0.8.16;\r\n\r\ncontract User {\r\n    struct UserStruct {\r\n        string name;\r\n        uint age;\r\n    }\r\n\r\n    mapping(uint => UserStruct) public users;\r\n    uint public serialNumber;\r\n\r\n    function addUser(string memory _name, uint _age) public {\r\n        users[serialNumber] = UserStruct(_name, _age);\r\n        serialNumber++;\r\n    }\r\n\r\n    function fetchUser(uint _serialNumber) public view returns (string memory, uint) {\r\n        return (users[_serialNumber].name, users[_serialNumber].age);\r\n    }\r\n}\r\n",
  "sourcePath": "C:\\Users\\kisha\\my stuffs\\Midprep-Techmeet\\smart-contract\\contracts\\user.sol",
  "compiler": {
    "name": "solc",
    "version": "0.8.16+commit.07a7930e.Emscripten.clang"
  },
  "schemaVersion": "3.4.11",
  "updatedAt": "2023-01-18T17:22:38.982Z",
  "devdoc": {
    "kind": "dev",
    "methods": {},
    "version": 1
  },
  "userdoc": {
    "kind": "user",
    "methods": {},
    "version": 1
  }
}